:100000000C942A000C94F0030C9423040C945604D2
:100010000C9447000C9447000C9447000C94470044
:100020000C9447000C9447000C94EA010C94B7011F
:100030000C9447000C9447000C9447000C94470024
:100040000C9447000C9447000C9447000C94470014
:100050000C94470011241FBECFE5D8E0DEBFCDBF12
:1000600010E0A0E6B0E0E0E5F4E102C005900D92FA
:10007000AC3AB107D9F710E0ACEAB0E001C01D928C
:10008000AA3BB107E1F70E940B0A0C94260A0C94D4
:100090000000DF93CF9300D000D00F92CDB7DEB732
:1000A0009B838A8381E089838A819B81009711F4F5
:1000B000198295C0EA81FB818181282F30E03D8340
:1000C0002C838C819D818130910521F12C813D8192
:1000D000223031052CF48C819D81009761F046C05F
:1000E0002C813D812230310521F18C819D8183302D
:1000F000910571F13BC0A3E5B0E0E3E5F0E080815C
:100100008F7B8C93A3E5B0E0E3E5F0E08081877F0F
:100110008C932CC0A3E5B0E0E3E5F0E0808180643F
:100120008C93A3E5B0E0E3E5F0E08081877F8C93DA
:100130001DC0A3E5B0E0E3E5F0E080818F7B8C9308
:10014000A3E5B0E0E3E5F0E0808188608C930EC029
:10015000A3E5B0E0E3E5F0E0808180648C93A3E563
:10016000B0E0E3E5F0E0808188608C93EA81FB8178
:10017000838194819093AD008093AC00EA81FB81F0
:10018000858196819093AF008093AE00A3E5B0E0A7
:10019000E3E5F0E09081EA81FB818081892B8C93FB
:1001A000A3E5B0E0E3E5F0E08081282FEA81FB8160
:1001B0008281882F90E082959295907F9827807F0A
:1001C0009827822B8C93EA81FB818281882339F0E6
:1001D000A7E3B0E0E7E3F0E0808188608C93898159
:1001E0000F900F900F900F900F90CF91DF91089587
:1001F000DF93CF9300D0CDB7DEB78A8381E08983C8
:10020000E2E5F0E08A81808389810F900F90CF91A1
:10021000DF910895DF93CF9300D00F92CDB7DEB773
:100220009B838A8381E089838A819B81009711F473
:10023000198206C0E2E5F0E08081EA81FB818083DB
:1002400089810F900F900F90CF91DF910895DF93E8
:10025000CF9300D00F92CDB7DEB79B838A8381E026
:1002600089838A819B81009711F419820FC0EA81EA
:10027000FB81838194819093AD008093AC00A9E5CC
:10028000B0E0E9E5F0E0808181608C9389810F9096
:100290000F900F90CF91DF910895DF93CF9300D00F
:1002A0000F92CDB7DEB79B838A8381E089838A81F1
:1002B0009B81009711F419820BC01092AD0010922F
:1002C000AC00A9E5B0E0E9E5F0E080818E7F8C9399
:1002D00089810F900F900F90CF91DF910895DF9358
:1002E000CF9300D00F92CDB7DEB79B838A8381E096
:1002F00089838A819B81009711F419820FC0EA815A
:10030000FB81858196819093AF008093AE00A9E533
:10031000B0E0E9E5F0E0808182608C9389810F9004
:100320000F900F90CF91DF910895DF93CF9300D07E
:100330000F92CDB7DEB79B838A8381E089838A8160
:100340009B81009711F419820BC01092AF0010929C
:10035000AE00A9E5B0E0E9E5F0E080818D7F8C9307
:1003600089810F900F900F90CF91DF9108951F9288
:100370000F920FB60F9211242F933F934F935F93D9
:100380006F937F938F939F93AF93BF93EF93FF935D
:10039000DF93CF93CDB7DEB78091AC009091AD00E5
:1003A000009729F0E091AC00F091AD000995CF9154
:1003B000DF91FF91EF91BF91AF919F918F917F91CD
:1003C0006F915F914F913F912F910F900FBE0F90C2
:1003D0001F9018951F920F920FB60F9211242F9312
:1003E0003F934F935F936F937F938F939F93AF93BD
:1003F000BF93EF93FF93DF93CF93CDB7DEB7809199
:10040000AE009091AF00009729F0E091AE00F0911E
:10041000AF000995CF91DF91FF91EF91BF91AF911F
:100420009F918F917F916F915F914F913F912F910C
:100430000F900FBE0F901F901895DF93CF9300D0B1
:10044000CDB7DEB7A3E5B0E0E3E5F0E080818F7BD8
:100450008C93A3E5B0E0E3E5F0E08081877F8C93A7
:10046000A3E5B0E0E3E5F0E0808182608C93E2E513
:10047000F0E088E380831A8219820EC0E2E5F0E0A2
:1004800080818823D9F7E2E5F0E088E380838981E1
:100490009A8101969A83898389819A8121E6883A93
:1004A000920760F30F900F90CF91DF910895DF9343
:1004B000CF9300D0CDB7DEB780E690E00E94490030
:1004C00087E690E00E94980687E690E00E94300759
:1004D00088E30E94F8001A8219820DC0E2E5F0E07C
:1004E00080818823D9F788E30E94F80089819A8166
:1004F00001969A83898389819A8123E188389207BA
:1005000068F3E2CFDF93CF9300D00F92CDB7DEB781
:100510009B838A8381E089838A819B81009711F480
:10052000198208C08A819B810E94EA028A819B818C
:100530000E94250389810F900F900F90CF91DF913A
:100540000895DF93CF9300D000D00F92CDB7DEB7E0
:100550009B838A8381E089838A819B81009711F440
:1005600019822FC0EA81FB818081282F30E03D83F2
:100570002C838C819D818130910591F02C813D816E
:1005800022303105B1F08C819D810097D1F4EA8150
:10059000FB81828193819093B1008093B00011C060
:1005A000EA81FB81848195819093B3008093B200AE
:1005B00008C0EA81FB81868197819093B500809382
:1005C000B40089810F900F900F900F900F90CF91F2
:1005D000DF910895DF93CF9300D000D0CDB7DEB781
:1005E0009A838983E981FA818081282F30E03C83D6
:1005F0002B838B819C818130910589F02B813C81FB
:1006000022303105A1F08B819C810097B9F4ABE5D4
:10061000B0E0EBE5F0E0808180648C930FC0ABE547
:10062000B0E0EBE5F0E0808180688C9307C0ABE53B
:10063000B0E0EBE5F0E0808180628C930F900F904A
:100640000F900F90CF91DF910895DF93CF93CDB7A7
:10065000DEB72A970FB6F894DEBF0FBECDBF9A83E0
:100660008983E981FA818081282F30E03A872987C0
:1006700089859A858130910509F44BC029853A8591
:100680002230310509F485C089859A85009709F0E3
:100690009EC0E981FA818181282F30E038872F833D
:1006A0008F81988581309105E1F02F813885223046
:1006B00031052CF48F819885009761F088C02F81D7
:1006C000388522303105E9F08F8198858330910596
:1006D00081F07DC0E5E5F0E0A5E5B0E08C91808398
:1006E00076C0A5E5B0E0E5E5F0E0808181608C931F
:1006F0006EC0A5E5B0E0E5E5F0E0808183608C9315
:1007000066C0A5E5B0E0E5E5F0E0808182608C930D
:100710005EC0E981FA818181282F30E03E832D83FC
:100720008D819E8181309105E1F02D813E812230C5
:1007300031052CF48D819E81009761F048C02D8198
:100740003E8122303105E9F08D819E818330910513
:1007500081F03DC0E5E5F0E0A5E5B0E08C91808357
:1007600036C0A5E5B0E0E5E5F0E0808181608C93DE
:100770002EC0A5E5B0E0E5E5F0E0808183608C93D4
:1007800026C0A5E5B0E0E5E5F0E0808182608C93CD
:100790001EC0E981FA818181282F30E03C832B83C0
:1007A0008B819C81009769F02B813C812130310540
:1007B00071F4A4E5B0E0E4E5F0E0808180648C931E
:1007C00006C0E4E5F0E0A4E5B0E08C9180832A96D1
:1007D0000FB6F894DEBF0FBECDBFCF91DF91089565
:1007E0001F920F920FB60F9211242F933F934F93A6
:1007F0005F936F937F938F939F93AF93BF93EF9389
:10080000FF93DF93CF93CDB7DEB78091B000909187
:10081000B100009729F0E091B000F091B100099586
:10082000CF91DF91FF91EF91BF91AF919F918F9108
:100830007F916F915F914F913F912F910F900FBEDC
:100840000F901F9018951F920F920FB60F921124C0
:100850002F933F934F935F936F937F938F939F93C8
:10086000AF93BF93EF93FF93DF93CF93CDB7DEB7F3
:100870008091B2009091B300009729F0E091B2000E
:10088000F091B3000995CF91DF91FF91EF91BF9166
:10089000AF919F918F917F916F915F914F913F9118
:1008A0002F910F900FBE0F901F9018951F920F92CF
:1008B0000FB60F9211242F933F934F935F936F9333
:1008C0007F938F939F93AF93BF93EF93FF93DF93A8
:1008D000CF93CDB7DEB78091B4009091B50000976B
:1008E00029F0E091B400F091B5000995CF91DF9126
:1008F000FF91EF91BF91AF919F918F917F916F91F8
:100900005F914F913F912F910F900FBE0F901F90CD
:100910001895DF93CF93CDB7DEB78AE690E00E94BB
:100920003007CF91DF910895DF93CF93CDB7DEB736
:100930008DE690E00E9482028DE690E00E94A10286
:100940008AE690E00E949806FFCFDF93CF9300D015
:1009500000D00F92CDB7DEB79B838A8381E0898375
:100960008A819B81009711F4198269C0EA81FB8119
:100970008281282F30E03D832C838C819D810097DC
:1009800031F02C813D812130310561F157C0EA8180
:10099000FB818081882F90E0880F991FFC01EB5824
:1009A000FF4FA081B181EA81FB818081882F90E097
:1009B000880F991FFC01EB58FF4F0190F081E02D4B
:1009C0008081482FEA81FB818181282F30E081E0FE
:1009D00090E0022E02C0880F991F0A94E2F7842B40
:1009E0008C932DC0EA81FB818081882F90E0880F55
:1009F000991FFC01EB58FF4FA081B181EA81FB8177
:100A00008081882F90E0880F991FFC01EB58FF4FE1
:100A10000190F081E02D8081482FEA81FB81818166
:100A2000282F30E081E090E0022E02C0880F991F4D
:100A30000A94E2F7809584238C9301C019828981FE
:100A40000F900F900F900F900F90CF91DF9108951E
:100A5000DF93CF9300D000D00F92CDB7DEB79B834A
:100A60008A837D836C8381E089838A819B8100975F
:100A700011F4198220C0EA81FB818081882F90E0E7
:100A8000880F991FFC01EB57FF4F0190F081E02D7B
:100A90008081282F30E0EA81FB818181882F90E0DE
:100AA000A90102C0559547958A95E2F7CA01817060
:100AB000EC81FD81808389810F900F900F900F90C2
:100AC0000F90CF91DF910895DF93CF9300D000D0A6
:100AD00000D0CDB7DEB79B838A836C8381E08983A6
:100AE0008A819B81009711F4198267C08C81282F1D
:100AF00030E03E832D838D819E81009789F12D8189
:100B00003E812130310509F057C0EA81FB818081A7
:100B1000882F90E0880F991FFC01E358FF4FA081B8
:100B2000B181EA81FB818081882F90E0880F991F35
:100B3000FC01E358FF4F0190F081E02D8081482FA8
:100B4000EA81FB818181282F30E081E090E0022E54
:100B500002C0880F991F0A94E2F7842B8C932DC052
:100B6000EA81FB818081882F90E0880F991FFC012A
:100B7000E358FF4FA081B181EA81FB818081882FFA
:100B800090E0880F991FFC01E358FF4F0190F0811E
:100B9000E02D8081482FEA81FB818181282F30E080
:100BA00081E090E0022E02C0880F991F0A94E2F7BC
:100BB000809584238C9301C01982898126960FB673
:100BC000F894DEBF0FBECDBFCF91DF910895DF93C4
:100BD000CF9300D000D00F92CDB7DEB79B838A832E
:100BE0007D836C8381E089838A819B81009711F4E6
:100BF000198220C0EA81FB818081882F90E0880FD4
:100C0000991FFC01EB57FF4F0190F081E02D80818F
:100C1000282F30E0EA81FB818181882F90E0A901B3
:100C200002C0559547958A95E2F7CA018170EC811B
:100C3000FD81808389810F900F900F900F900F900E
:100C4000CF91DF910895DF93CF9300D00F92CDB76E
:100C5000DEB79B838A8381E089838A819B810097A9
:100C600011F419822AC0EA81FB818081882F90E0EB
:100C7000880F991FFC01E358FF4FA081B181EA81E1
:100C8000FB818081882F90E0880F991FFC01E35839
:100C9000FF4F0190F081E02D8081482FEA81FB8198
:100CA0008181282F30E081E090E0022E02C0880F81
:100CB000991F0A94E2F784278C9389810F900F90F3
:100CC0000F90CF91DF910895DF93CF9300D00F92D3
:100CD000CDB7DEB79B838A8381E089838A819B813C
:100CE000009711F419820EC08A819B810E94A5048D
:100CF0008983EA81FB8123818A819B81622F0E9403
:100D00006405898389810F900F900F90CF91DF91B7
:100D10000895DF93CF93CDB7DEB78DE890E00E94C2
:100D200064068DE890E00E942306CF91DF9108953C
:100D3000DF93CF93CDB7DEB727970FB6F894DEBF1A
:100D40000FBECDBF9F838E8381E089838E819F817B
:100D5000009711F4198218C0EE81FF818081EE8125
:100D6000FF819181EE81FF8122818A839B831C8296
:100D70002D83CE0102960E94A5048983CE0102969E
:100D800060E00E9464058983898127960FB6F894F4
:100D9000DEBF0FBECDBFCF91DF910895DF93CF931C
:100DA000CDB7DEB727970FB6F894DEBF0FBECDBF25
:100DB0009F838E8381E089838E819F81009711F4C8
:100DC000198213C0EE81FF818081EE81FF819181C4
:100DD000EE81FF8122818A839B831C822D83CE0139
:100DE000029661E00E9464058983898127960FB687
:100DF000F894DEBF0FBECDBFCF91DF910895DF9392
:100E0000CF93CDB7DEB727970FB6F894DEBF0FBEEE
:100E1000CDBF9F838E8381E089838E819F810097E0
:100E200011F4198213C0EE81FF818081EE81FF8170
:100E30009181EE81FF8122818A839B831C822D8395
:100E4000CE01029660E00E9464058983898127961D
:100E50000FB6F894DEBF0FBECDBFCF91DF910895DE
:100E6000DF93CF93CDB7DEB727970FB6F894DEBFE9
:100E70000FBECDBF9F838E8381E089838E819F814A
:100E8000009711F4198212C0EE81FF818081EE81FA
:100E9000FF819181EE81FF8122818A839B831C8265
:100EA0002D83CE0102960E9423068983898127968D
:100EB0000FB6F894DEBF0FBECDBFCF91DF9108957E
:100EC000DF93CF9300D000D0CDB7DEB79B838A836A
:100ED00081E089838A819B81009711F4198204C083
:100EE000EA81FB8182818C838C810F900F900F901F
:100EF0000F90CF91DF910895DF93CF9300D000D072
:100F00000F92CDB7DEB79D838C8381E08B838C817C
:100F10009D81009711F41B823DC0A5E4B0E0E5E49B
:100F2000F0E080818F7B8C93A5E4B0E0E5E4F0E015
:100F30008081877F8C93A5E4B0E0E5E4F0E08081D8
:100F400082608C93E4E4F0E088E380831A82198263
:100F50001BC0E4E4F0E080818823D9F7E4E4F0E00A
:100F600088E3808389819A8124EC39E0B9010E9469
:100F7000120A009721F48C819D810E94300789819B
:100F80009A8101969A83898389819A8121E6883A98
:100F90009207F8F28B810F900F900F900F900F90A7
:100FA000CF91DF910895DF93CF93CDB7DEB7279729
:100FB0000FB6F894DEBF0FBECDBF9D838C837F83B9
:100FC0006E8381E08B838C819D81009721F08E81DF
:100FD0009F81009711F41B8241C0A5E4B0E0E5E4D5
:100FE000F0E080818F7B8C93A5E4B0E0E5E4F0E055
:100FF0008081877F8C93A5E4B0E0E5E4F0E0808118
:1010000082608C93E4E4F0E088E380831A821982A2
:101010001FC0E4E4F0E080818823D9F7E4E4F0E045
:1010200088E3808389819A8124EC39E0B9010E94A8
:10103000120A009741F48C819D810E9430078E81B5
:101040009F810E94300789819A8101969A838983C2
:1010500089819A8121E6883A9207D8F28B81279676
:101060000FB6F894DEBF0FBECDBFCF91DF910895CC
:10107000DF93CF93CDB7DEB781E990E00E94980669
:1010800081E990E00E943007FBCFDF93CF9300D03F
:101090000F92CDB7DEB79B838A8381E089838A81F3
:1010A0009B81009711F4198204C08A819B810E9460
:1010B000A50489810F900F900F90CF91DF91089533
:1010C000DF93CF9300D000D000D0CDB7DEB79C83A4
:1010D0008B837E836D8381E089831A828B819C81DF
:1010E000009731F48D819E81009711F4198231C0EF
:1010F0008B819C819E012E5F3F4FB9010E94E705C5
:10110000EB81FC818481813079F48A81813021F402
:10111000ED81FE8110821BC08A818823C1F4ED819C
:10112000FE8181E0808313C0EB81FC818481882370
:1011300071F48A81813029F4ED81FE8181E0808320
:1011400006C08A81882319F4ED81FE81108281E036
:101150008983898126960FB6F894DEBF0FBECDBF76
:10116000CF91DF910895DF93CF93CDB7DEB783EAB8
:1011700090E00E9482028093AB0083EA90E00E949C
:10118000A1028093AB0084E990E00E9498068093CE
:10119000AB0087E990E00E9498068093AB008AE953
:1011A00090E00E9498068093AB0086EB90E00E944E
:1011B00098068093AB008DE990E00E94980680939A
:1011C000AB0080EA90E00E9498068093AB000E94FA
:1011D000F308FDCFDF93CF93CDB7DEB70E94480968
:1011E000CF91DF910895DF93CF93CDB7DEB782E043
:1011F0008093B90086EB90E00E94CE068093AB000E
:101200008AE990E00E94CE068093AB000E941D0206
:1012100081E08093B9008DE990E027E930E0B901E1
:101220000E94D3078093AB000E948D091092B900F1
:1012300080EA90E00E94CE068093AB0084E990E0C3
:101240000E94CE068093AB000E941D0281E0809335
:10125000B9008DE990E027E930E0B9010E94D30799
:101260008093AB000E948D0982E08093B90086EBE9
:1012700090E00E94CE068093AB008AE990E00E9445
:10128000CE068093AB000E941D02CF91DF9108959E
:10129000DF93CF93CDB7DEB78091B900882319F4DF
:1012A0000E94F4090AC08091B900823021F0809137
:1012B000B900813011F40E94B8090E948D0980EABA
:1012C00090E00E94FF068093AB0084E990E00E94CA
:1012D000CE068093AB0087E990E02DE930E0B901BC
:1012E0000E94D3078093AB0084E990E00E94FF0640
:1012F0008093AB008AE990E00E94CE068093AB0019
:1013000080EA90E00E94CE068093AB000E941D020E
:101310000E94F308CF91DF910895DF93CF93CDB76B
:10132000DEB780EA90E00E94FF068093AB0086EB78
:1013300090E00E94FF068093AB008DE990E00E9450
:10134000FF068093AB008AE990E00E94FF0680933D
:10135000AB0084E990E00E94FF068093AB0087E930
:1013600090E00E94FF068093AB00CF91DF9108953B
:10137000DF93CF93CDB7DEB787E990E00E94FF06F9
:101380008093AB008DE990E00E94FF068093AB0054
:101390008AE990E00E94CE068093AB008DE990E050
:1013A00027E930E0B9010E94D3078093AB0086EBB8
:1013B00090E00E94FF068093AB008AE990E00E94D3
:1013C000FF068093AB0080EA90E00E94CE068093F7
:1013D000AB0084E990E00E94CE068093AB000E94AF
:1013E0001D02CF91DF910895DF93CF93CDB7DEB784
:1013F0000E948D0984E990E00E94CE068093AB00A4
:1014000080EA90E00E94CE068093AB000E941D020D
:10141000CF91DF910895DF93CF93CDB7DEB70E94D0
:10142000B308FDCFAA1BBB1B51E107C0AA1FBB1FFE
:10143000A617B70710F0A61BB70B881F991F5A9560
:10144000A9F780959095BC01CD010895F894FFCF40
:1014500002000000000000030000030000000389F8
:1014600004000000003A003700340031003B00382F
:101470000035003200390036003300300001000032
:101480000103000001000001010001020000010051
:0C1490000002000002EA08000000000159
:00000001FF
